:0400000009EF01F013
:100008005E82FACF3CF0FBCF3DF0E9CF3EF0EACF7D
:100018003FF0E1CF40F0E2CF41F0D9CF42F0DACF64
:1000280043F0F3CF44F0F4CF45F0F6CF46F0F7CFE6
:1000380047F0F8CF48F0F5CF49F09EAC55D018EC12
:100048000CF001C04AF002C04BF037D0C29AC298F7
:10005800C296C2844AC036F04BC037F03CEC09F077
:1000680015D0C29AC298C286C2944AC036F04BC014
:1000780037F075EC09F00AD0C29AC298C286C284D9
:100088004AC036F04BC037F003EC09F0574A582AFB
:100098002AD0C29AC298C296C2944AC036F04BC0BF
:1000A80037F0B8EC0AF004D0C29AC298C296C2944B
:1000B800000E586E000E576E16D057C03AF058C052
:1000C8003BF03B50000AD8A4EFD73A50000AD8B406
:1000D800BDD7010AD8B4C5D7030AD8B4CDD7010A09
:1000E800D8B4D7D7E1D79E9CF2A42CD0140E5B18B5
:1000F8005C10D8A412D0829A8298000E5C6E000E12
:100108005B6E5EEC0CF001C055F002C056F063EC7B
:100118000CF001C053F002C054F05B50551804E1D4
:100128005C505618D8B4828A5B50531804E15C506E
:100138005418D8B482885B4A5C2AF294000ED76EB1
:10014800560ED66E9EAA43D009EC0CF04C6E595050
:100158005A10D8A410D0620E4C18D8A404D0000E9F
:100168005A6E010E10D0630E4C18D8A41AD0000E87
:100178005A6E020E08D059045A10D8A406D04C5012
:100188002EEC0CF00AD0596E0CD0020E59185A10E9
:10019800D8A403D04C5037EC0CF0000E5A6E000E69
:1001A800F2D7ACA2FED70D0E026E060E036EABECB4
:1001B8000BF0ACA2FED74C5025EC0CF0ACA2FED74D
:1001C800010E026E060E036EABEC0BF09E9A49C050
:1001D800F5FF48C0F8FF47C0F7FF46C0F6FF45C027
:1001E800F4FF44C0F3FF43C0DAFF42C0D9FF41C067
:1001F800E2FF40C0E1FF3FC0EAFF3EC0E9FF3DC06B
:0E020800FBFF3CC0FAFF5E9211004FEF0AF0C0
:10060000000A0D0A0D57726974653A20000A0D45FB
:0706100063686F3A2000004F
:100618001DC021F0226A236A1C34213601E322809E
:100628002150266E20C021F0226A236A1F34213609
:1006380001E322802150256E2650D8B40BD02550D6
:10064800265CD8B00ED0265000082524216E180E3E
:10065800216407D01EC01BF01FC01CF020C01DF075
:1006680012002550D8B40BD02650255CD8B00ED037
:10067800255000082624216E180E216407D01BC0BF
:100688001BF01CC01CF01DC01DF01200060E246ECD
:100698001DBE248E20BE248C1C8EFF0E1B16FF0E42
:1006A8001C16000E1D161F8EFF0E1E16FF0E1F169F
:1006B800000E20162550265CD8B01BD0D8901E36C8
:1006C8001F362036250626502518D8B40DD0240606
:1006D80024C021F0070E2116D8B406D0EFD7D89041
:1006E8001D321C321B32262A25502618D8B41FD09A
:1006F800F6D72650255CD8B01AD0D8901B361C36B1
:100708001D36260626502518D8B40DD0240624C038
:1007180021F0070E2116D8B406D0EFD7D890203292
:100728001F321E32252A25502618D8A4F7D724AE02
:100738000CD0FF0E1B1AFF0E1C1AFF0E1D1A010EFD
:100748001B26000E1C22000E1D2224AC0CD0FF0E0E
:100758001E1AFF0E1F1AFF0E201A010E1E26000E6B
:100768001F22000E2022000E246E1B501E261C5035
:100778001F221D50202220AE0ED0FF0E1E1AFF0E83
:100788001F1AFF0E201A010E1E26000E1F22000E31
:100798002022010E246E1EC001F01FC002F020C0EE
:1007A80003F026C004F024C005F0D6EC07F001C021
:1007B8001BF002C01CF003C01DF0120037EC06F05D
:1007C8004AEC0CF00001A6510001A711D8A467D08B
:1007D80045EC0CF0A6C0C3F0A7C0C4F040EC0CF088
:1007E800A6C0C5F0A7C0C6F00001C6BF4BD0000127
:1007F800C65104E10001C505D8A044D00001C4BF1A
:1008080041D00001C45104E10001C305D8A03AD089
:1008180059EC0CF00001A75105E1230E0001A65D7B
:10082800D8A014D04FEC0CF00001A75105E11E0E22
:100838000001A65DD8A00AD054EC0CF00001A75125
:1008480014E11E0E0001A65DD8B00FD0000E000105
:10085800B06F000EAF6F95EC0AF0000E0001B06F9C
:10086800000EAF6F72EC0AF01200C3C0AFF0C4C044
:10087800B0F095EC0AF0C5C0AFF0C6C0B0F072ECAD
:100888000AF01200C3C0AFF0C4C0B0F095EC0AF093
:10089800C5C0AFF0C6C0B0F072EC0AF012004AEC66
:1008A8000CF00001A6050001A711D8A4120059EC0C
:1008B8000CF00001A7511DE1230E0001A65DD8B080
:1008C80018D054EC0CF0A6C0C1F0A7C0C2F04FEC91
:1008D8000CF00001A6510001C15D0001A751000103
:1008E800C259D8B003D04AEC0BF012007CEC0BF0E4
:1008F80012004FEC0CF00001A75108E11E0E000198
:10090800A65DD8B003D063EC0BF0120054EC0CF0E9
:100918000001A75108E11E0E0001A65DD8B003D062
:1009280031EC0BF01200000E0001B06F280EAF6F13
:1009380072EC0AF0000E0001B06F280EAF6F95EC54
:100948000AF0120020EEC7F010EEB3F0040EDBCF71
:10095800E3FFE806FCE2000E0001BB6F040EBA6F6D
:10096800000E0001B96F000EB86F0001AFAF35D0AF
:10097800010E0001A96F2D0EAEEC09F00001AE6D5D
:10098800AF1FD8B0AF2B29D0B30E0001BA25D96E4E
:10099800000E0001BB21DA6EAEC0A6F0AFC0A7F012
:1009A800000E0001A96F0A0EA86F2DEC08F00001D7
:1009B800A651DF6EAEC0A6F0AFC0A7F0000E0001D2
:1009C800A96F0A0EA86F77EC07F0A6C0AEF0A7C013
:1009D800AFF00001BA07D8A0BB070001AE51000173
:1009E800AF11D8A4D1D70001B029D8B404D00FD002
:1009F8000001B84BB92BB30E0001B825D96E000E13
:100A08000001B921DA6EDF50D8A416D0F1D7B0C0F2
:100A1800B1F00001B26BB1BFB2070001B11FB21F44
:100A2800B14BB22B050E0001B1250001B86F000EC5
:100A38000001B2210001B96FB8C0BAF0B9C0BBF06B
:100A48000001BBBF08D00001BB5118E1050E000131
:100A5800BA5DD8B01200010E0001A96FB30E0001F3
:100A6800BA25D96E000E0001BB21DA6EDF50300FB7
:100A7800AEEC09F00001BA4BBB2BE2D7120029C03B
:100A88002BF02C6A2D6A28342B3601E32C802B504E
:100A9800356E3550D8A409D0000E276E000E286E8A
:100AA800000E296E000E2A6E1200170E2B6E27C03C
:100AB8002CF028C02DF029C02EF02B282F6E04D042
:100AC800D8902E322D322C322F2EFAD72C50306E51
:100AD800288EFF0E2716FF0E2816000E29162750FF
:100AE800316E2850326E2950336E346A8E0E355E60
:100AF80035AE16D03550800A8F0FD8B009D0000E09
:100B0800276E000E286E000E296E000E2A6E120047
:100B1800D8903432333232323132353EF9D715D0AB
:100B2800170E35640FD0000E276E000E286E000ECB
:100B3800296E000E2A6E1200D890313632363336BE
:100B4800343635063550D8A4F7D73050D8B408D045
:100B5800341E331E321E316C000E322233223422F0
:100B680031C027F032C028F033C029F034C02AF051
:100B780012000EC012F0136A146A0D34123601E323
:100B880013801250156E1550D8A407D0000E0C6EA5
:100B9800000E0D6E000E0E6E120011C012F0136AD8
:100BA800146A1034123601E3138012501A6E1A5068
:100BB800D8A407D0000E0C6E000E0D6E000E0E6E3F
:100BC80012001A507B0F15260EC01AF011501A1A6F
:100BD800800E1A160D8E108EFF0E0F16FF0E1016B1
:100BE800000E1116000E166E000E176E000E186E0F
:100BF800070E196E0CA006D00F501626105017229B
:100C080011501822D8900E320D320C32D8900F366F
:100C180010361136192EEED7090E196E0CA006D013
:100C28000F5016261050172211501822D8900E3245
:100C38000D320C32D890183217321632192EEED7E0
:100C480016C001F017C002F018C003F015C004F078
:100C58001AC005F0D6EC07F001C00CF002C00DF088
:100C680003C00EF0120081CFBEF00001BE390F0B99
:100C78000001C06F0001BE510F0B0001BF6F0001E2
:100C8800BF51A7EC06F0A6C0D2F0A7C0D3F0000170
:100C9800C051A7EC06F0A6C0D0F0A7C0D1F00C0E4A
:100CA8000001C019D8A405D0000E0001CD6F010EB7
:100CB80004D0000E0001CD6F000ECC6FBFC0BCF099
:100CC8000001BD6B000E0001AE6F000E04EC0AF0CF
:100CD800BCC0AEF0BDC0AFF0040E0001B06FA6EC12
:100CE80004F0000E0001AE6F080E04EC0AF0D2C04A
:100CF800AEF0D3C0AFF0040E0001B06FA6EC04F064
:100D0800C0C0BCF00001BD6B010E0001AE6F000E4B
:100D180004EC0AF0BCC0AEF0BDC0AFF0040E000198
:100D2800B06FA6EC04F0010E0001AE6F080E04ECE3
:100D38000AF0D0C0AEF0D1C0AFF0040E0001B06F21
:100D4800A6EC04F012000001A86F48D0FF0E0001C5
:100D5800A76F9C0EA66F1200FF0E0001A76FB00EC2
:100D6800A66F1200FF0E0001A76FC40EA66F120037
:100D7800FF0E0001A76FD80EA66F1200FF0E00012C
:100D8800A76FEC0EA66F1200000E0001A76F000EF1
:100D9800A66F1200000E0001A76F140EA66F1200B6
:100DA800000E0001A76F280EA66F1200000E0001AA
:100DB800A76F3C0EA66F1200000E0001A76F500E21
:100DC800A66F1200000E0001A76F640EA66F120036
:100DD800000E0001A76F000EA66F12000001A851B7
:100DE800010AD8B4B3D7030AD8B4B6D7010AD8B41D
:100DF800B9D7070AD8B4BCD7010AD8B4BFD7030AF1
:100E0800D8B4C2D7010AD8B4C5D70F0AD8B4C8D73E
:100E1800010AD8B4CBD7030AD8B4CED7010AD8B4BC
:100E2800D1D7D6D7036E3CD0FF0E026E9C0E016E52
:100E38001200FF0E026EB00E016E1200FF0E026E5F
:100E4800C40E016E1200FF0E026ED80E016E120063
:100E5800FF0E026EEC0E016E1200000E026E000E06
:100E6800016E1200000E026E140E016E1200000ECA
:100E7800026E280E016E1200000E026E3C0E016E0C
:100E88001200000E026E500E016E1200000E026E6D
:100E9800640E016E1200000E026E000E016E12004A
:100EA8000350300AD8B4C0D7010AD8B4C2D7030A4D
:100EB800D8B4C4D7010AD8B4C6D7070AD8B4C8D793
:100EC800010AD8B4CAD7030AD8B4CCD7010AD8B40F
:100ED800CED70F0AD8B4D0D7010AD8B4D2D7580A77
:100EE800D8B4D4D7D8D7000E0001AB6F0001A9AF92
:100EF80008D00001A86DA91FD8B0A92B010E0001C8
:100F0800AB6F0001A7AF08D00001A66DA71FD8B02E
:100F1800A72B010E0001AB1B000E0001AD6F000EE8
:100F2800AC6F0001A8510001A911D8B42CD0010E52
:100F38000001AA6F06D00001D890A837A937000190
:100F4800AA2B0001A9AFF7D70001D890AC37AD376D
:100F58000001A8510001A65D0001A9510001A7598F
:100F6800D8A00AD00001A8510001A65F0001A9512C
:100F78000001A75B0001AC810001D890A933A83318
:100F88000001AA2FE1D70001AB510001D8B405D068
:100F98000001AC6DAD1FD8B0AD2BACC0A6F0ADC094
:100FA800A7F012000450D8B405D001500210031065
:100FB800D8A40CD0000E016E000E026E000E036E57
:100FC8001200042AD890033202320132000E0114B2
:100FD800066E000E0214076EFE0E0314086E06500D
:100FE80007100810D8B40CD0ECD7042A010E01263B
:100FF800000E0222000E0322D89003320232013280
:10100800000E0114066E000E0214076EFF0E031484
:10101800086E065007100810D8B406D0E6D70406A4
:10102800D89001360236033602BE03D0020E0460A1
:10103800F6D704A0029ED89004320450031205503B
:10104800D8A4038E01C001F002C002F003C003F06F
:101058001200000E0001AB6F0001A7AF08D000011D
:10106800A66DA71FD8B0A72B010E0001AB6F00011A
:10107800A9AF05D00001A86DA91FD8B0A92B000100
:10108800A8510001A911D8B426D0010E0001AA6FF9
:1010980006D00001D890A837A9370001AA2B000173
:1010A800A9AFF7D70001A8510001A65D0001A95119
:1010B8000001A759D8A008D00001A8510001A65FD7
:1010C8000001A9510001A75B0001D890A933A833FA
:1010D8000001AA2FE7D70001AB510001D8B405D011
:1010E8000001A66DA71FD8B0A72BA6C0A6F0A7C061
:1010F800A7F012000001AF6F0A0E0001AE6FBC0E20
:10110800E82EFED7AE2FFCD700F000F0F00E9516B3
:10111800959C9598959AF00E8316839C839A83984C
:10112800838C8382839CD9EC09F0000E0001A96F9F
:10113800280EAEEC09F0000E0001A96F0001AF51B6
:101148000C09AEEC09F0000E0001A96F400EAEECE0
:1011580009F0000E0001B06F3F0E0001B06501D02C
:101168001200010E0001A96F0001B051010D600EBF
:10117800F324D96E000EF420DA6EDF50AEEC09F0DD
:101188000001B02BE9D7000E0001AB6F000EAA6F6B
:101198000001A8510001A911D8B42CD0010E0001FA
:1011A800AC6F06D00001D890A837A9370001AC2B46
:1011B8000001A9AFF7D70001D890AA37AB370001D3
:1011C800A8510001A65D0001A9510001A759D8A0A6
:1011D8000AD00001A8510001A65F0001A951000131
:1011E800A75B0001AA810001D890A933A8330001A8
:1011F800AC2FE1D7AAC0A6F0ABC0A7F01200000E32
:101208001E6EA00E1F6E400E206E080E0F6E2C0E66
:10121800106E3D0E116E36C038F037C039F0381EEA
:10122800391E384A392AFF0E3824096E030E392030
:101238000A6EE8EC0BF009C00CF00AC00DF00BC008
:101248000EF0BDEC05F00CC01BF00DC01CF00EC07C
:101258001DF00CEC03F01BC027F01CC028F01DC0CB
:1012680029F043EC05F027C0A4F028C0A5F012002F
:10127800000E1E6EA00E1F6E400E206E080E0F6E22
:101288002C0E106E3D0E116E36C038F037C039F096
:10129800381E391E384A392AFF0E3824096E030EC3
:1012A80039200A6EE8EC0BF009C00CF00AC00DF00A
:1012B8000BC00EF0BDEC05F00CC01BF00DC01CF00F
:1012C8000EC01DF00CEC03F01BC027F01CC028F06A
:1012D8001DC029F043EC05F027C0A2F028C0A3F0F8
:1012E8001200000E1E6EA00E1F6E400E206E080E1D
:1012F8000F6E2C0E106E3D0E116E36C038F037C0D2
:1013080039F0381E391E384A392AFF0E3824096E3A
:10131800030E39200A6EE8EC0BF009C00CF00AC085
:101328000DF00BC00EF0BDEC05F00CC01BF00DC0AD
:101338001CF00EC01DF00CEC03F01BC027F01CC005
:1013480028F01DC029F043EC05F027C0A0F028C004
:10135800A1F012000001AC6F0001AC390F0B0001C5
:10136800AA6F0001AC510F0B0001AB6F0001A9512E
:101378000001D8A402D0839801D08388838C83503D
:10138800F00B0001AA110001AD6FADC083FF839C73
:10139800838C8350F00B0001AB110001AD6FADC021
:1013A80083FF839CD9EC09F01200000E0001A86F9E
:1013B8000F0E9512838A8398838C83CFA8F000013F
:1013C800A839F00B0001A86F839C838C83CFA7F00A
:1013D8000F0E0001A7170001A8510001A711000175
:1013E800A86F0001A851800B0001A66F839C000123
:1013F800A6510001D8A4E0D7839AF00E95161200E2
:101408000001AF6F130E0001AF650AD01200000192
:10141800AF8D14D0140E01D0540E0001AF270ED09A
:101428000001AE51000AD8B409D0010AD8B4EFD7E8
:10143800030AD8B4EFD7010AD8B4EED70001AF8FAA
:10144800000E0001A96F0001AF51AEEC09F01200C7
:101458000C12120C0000000000040E1F0E04000005
:10146800040404041F0E04000A15110A04000000F5
:101478000A1F1F0E0400000000000000000000000A
:101488000000000000000000000000000000000054
:1014980032003200320000EEC7F00D0EEE6AE806A8
:1014A800FDE100EE4DF0110EEE6AE806FDE1580E82
:1014B800F66E140EF76E000EF86E00EE60F010EE89
:1014C80046F00900F5CFEEFFE550E150FAE15E90F5
:1014D8005E92000EF86E0001D9EF0AF0AFC0CEF0B0
:1014E800B0C0CFF00001B0BF0AD00001B05104E194
:1014F8000001AF05D8A003D08284829605D00001F0
:10150800B0AF02D082948286AFC0A6F0B0C0A7F078
:1015180095EC0BF0A6C0ADF0A7C0AEF0F7EC0AF062
:101528001200AFC0D4F0B0C0D5F00001B0BF0AD0EF
:101538000001B05104E10001AF05D8A003D08280BA
:10154800829205D00001B0AF02D082908282AFC0F3
:10155800A6F0B0C0A7F095EC0BF0A6C0ADF0A7C000
:10156800AEF014EC0BF01200120E0F6E630E106E3C
:10157800400E116E36C009F037C00AF0E8EC0BF0E7
:1015880009C00CF00AC00DF00BC00EF0BDEC05F060
:101598000CC027F00DC028F00EC029F043EC05F070
:1015A80027C04DF028C04EF01200D6EC0BF0C1EC6D
:1015B8000BF0FAEC0BF0000E0001B06F000EAF6FED
:1015C80095EC0AF0000E0001B06F000EAF6F72ECE0
:1015D8000AF0000E7EEC08F068EC0CF06CEC0CF0F5
:1015E800E2EC03F0FBD7ADC0A6F0AEC0A7F0000E4A
:1015F8000001A96F050EA86FC7EC08F00001A61F2F
:101608000001A71F0001A64BA72B140E0001A62559
:101618000001D86F000E0001A7210001D96F120048
:10162800ADC0A6F0AEC0A7F0000E0001A96F050E70
:10163800A86FC7EC08F00001A61F0001A71F000152
:10164800A64BA72B140E0001A6250001D66F000E8D
:101658000001A7210001D76F1200FF0E0001B06F33
:101668009C0EAF6F72EC0AF0000E0001B06F640EB2
:10167800AF6F95EC0AF0210E0001B16F760EE82EDF
:10168800FED7B12FFCD700F000F01200FF0E0001CA
:10169800B06F9C0EAF6F72EC0AF0000E0001B06FD5
:1016A800640EAF6F95EC0AF0310E0001B16FB20E07
:1016B800E82EFED7B12FFCD700F000F01200000E84
:1016C8000001B06F640EAF6F72EC0AF0FF0E0001FC
:1016D800B06F9C0EAF6F95EC0AF0210E0001B16F50
:1016E800760EE82EFED7B12FFCD700F000F01200DE
:1016F800000E0001B06F640EAF6F72EC0AF0FF0EBF
:101708000001B06F9C0EAF6F95EC0AF0310E00012E
:10171800B16FB20EE82EFED7B12FFCD700F000F063
:1017280012000001A7AF0ED0A6C0A8F0A7C0A9F06C
:101738000001A81FA91FA84BA92BA8C0A6F0A9C0E3
:10174800A7F01200A6C0A6F0A7C0A7F01200ACA28E
:10175800FED702C0F6FF03C0F7FF0800F55025ECDE
:101768000CF002C0F6FF03C0F7FF024A032A080084
:10177800F5500009D8B41200EAD7C00E946E8280E2
:10178800829282848296000E0001AE6F000EAD6FC9
:1017980014EC0BF0000E0001AE6F000EAD6FF7EC0D
:1017A8000AF0120092809282928492867E807E82D3
:1017B8007E847E86C280000EC16E910EC06E9E9C95
:1017C8009D8CF28CF28E120009C001F00AC002F062
:1017D800036A8E0E046E000E056ED6EC07F001C08B
:1017E80009F002C00AF003C00BF01200F28EF28A70
:1017F800D58CD59AD586D594D592D580F294000EFD
:10180800D76E9C0ED66ED58E1200F20E5D16ABAC5E
:1018180003D05D90ABB05D80ABB45D84ABB25D8648
:10182800AECF01F001501200C3CF05F0066AC450D4
:10183800046E036A05500324016E06500420026EEC
:101848001200016EACAC03D0AC905DB2AC8001C0AC
:10185800ADFF1200046E045016EC07F001C051F001
:1018680002C052F01200046E045016EC07F001C0DA
:101878004FF002C050F01200D2C0A6F0D3C0A7F0BB
:101888001200D0C0A6F0D1C0A7F01200CCC0A6F0BC
:10189800CDC0A7F01200A4C0A6F0A5C0A7F0120002
:1018A800A2C0A6F0A3C0A7F01200A0C0A6F0A1C0D5
:1018B800A7F01200D8C001F0D9C002F01200D6C0BB
:1018C80001F0D7C002F012009368000E7F6E12007C
:0418D800C2821200B6
:020000040020DA
:08000000FFFFFFFFFFFFFFFF00
:020000040030CA
:0E000000FF081F1EFF8B81FF0FC00FE00F4097
:00000001FF
