:04000000C4EF00F059
:100008005E82FACF3CF0FBCF3DF0E9CF3EF0EACF7D
:100018003FF0E1CF40F0E2CF41F0D9CF42F0DACF64
:1000280043F0F3CF44F0F4CF45F0F6CF46F0F7CFE6
:1000380047F0F8CF48F0F5CF49F09EAC55D0BDEC6D
:1000480009F001C04AF002C04BF037D0C29AC298FA
:10005800C296C2844AC036F04BC037F0D0EC07F0E5
:1000680015D0C29AC298C286C2944AC036F04BC014
:1000780037F009EC08F00AD0C29AC298C286C28446
:100088004AC036F04BC037F097EC07F05A4A5B2A63
:100098002AD0C29AC298C296C2944AC036F04BC0BF
:1000A80037F0FDEC08F004D0C29AC298C296C29408
:1000B800000E5B6E000E5A6E16D05AC03AF05BC046
:1000C8003BF03B50000AD8A4EFD73A50000AD8B406
:1000D800BDD7010AD8B4C5D7030AD8B4CDD7010A09
:1000E800D8B4D7D7E1D79E9CF2A42CD0140E5C18B4
:1000F8005D10D8A412D08298829A000E5D6E000E10
:100108005C6ECFEC09F001C058F002C059F0D4EC95
:1001180009F001C056F002C057F05C50581804E1CD
:100128005D505918D8B482885C50561804E15D5067
:100138005718D8B4828A5C4A5D2AF294000ED76EAA
:10014800560ED66E49C0F5FF48C0F8FF47C0F7FF06
:1001580046C0F6FF45C0F4FF44C0F3FF43C0DAFFD2
:1001680042C0D9FF41C0E2FF40C0E1FF3FC0EAFF03
:100178003EC0E9FF3DC0FBFF3CC0FAFF5E921100A4
:0401880098EF08F0F4
:100600000048656C6C6F20576F726C64202100008D
:100610001DC021F0226A236A1C34213601E32280A6
:100620002150266E20C021F0226A236A1F34213611
:1006300001E322802150256E2650D8B40BD02550DE
:10064000265CD8B00ED0265000082524216E180E46
:10065000216407D01EC01BF01FC01CF020C01DF07D
:1006600012002550D8B40BD02650255CD8B00ED03F
:10067000255000082624216E180E216407D01BC0C7
:100680001BF01CC01CF01DC01DF01200060E246ED5
:100690001DBE248E20BE248C1C8EFF0E1B16FF0E4A
:1006A0001C16000E1D161F8EFF0E1E16FF0E1F16A7
:1006B000000E20162550265CD8B01BD0D8901E36D0
:1006C0001F362036250626502518D8B40DD024060E
:1006D00024C021F0070E2116D8B406D0EFD7D89049
:1006E0001D321C321B32262A25502618D8B41FD0A2
:1006F000F6D72650255CD8B01AD0D8901B361C36B9
:100700001D36260626502518D8B40DD0240624C040
:1007100021F0070E2116D8B406D0EFD7D89020329A
:100720001F321E32252A25502618D8A4F7D724AE0A
:100730000CD0FF0E1B1AFF0E1C1AFF0E1D1A010E05
:100740001B26000E1C22000E1D2224AC0CD0FF0E16
:100750001E1AFF0E1F1AFF0E201A010E1E26000E73
:100760001F22000E2022000E246E1B501E261C503D
:100770001F221D50202220AE0ED0FF0E1E1AFF0E8B
:100780001F1AFF0E201A010E1E26000E1F22000E39
:100790002022010E246E1EC001F01FC002F020C0F6
:1007A00003F026C004F024C005F0CEEC05F001C033
:1007B0001BF002C01CF003C01DF0120020EEB8F0C8
:1007C00010EEADF0040EDBCFE3FFE806FCE2000E16
:1007D0000001B56F040EB46F000E0001B36F000E80
:1007E000B26F0001A9AF35D0010E0001A36F2D0E2D
:1007F00042EC08F00001A86DA91FD8B0A92B29D0A0
:10080000AD0E0001B425D96E000E0001B521DA6EDF
:10081000A8C0A0F0A9C0A1F0000E0001A36F0A0EAD
:10082000A26F76EC06F00001A051DF6EA8C0A0F028
:10083000A9C0A1F0000E0001A36F0A0EA26F6FEC19
:1008400005F0A0C0A8F0A1C0A9F00001B407D8A08D
:10085000B5070001A8510001A911D8A4D1D7000102
:10086000AA29D8B404D00FD00001B24BB32BAD0EDF
:100870000001B225D96E000E0001B321DA6EDF50FF
:10088000D8A416D0F1D7AAC0ABF00001AC6BABBFB7
:10089000AC070001AB1FAC1FAB4BAC2B050E00012E
:1008A000AB250001B26F000E0001AC210001B36F57
:1008B000B2C0B4F0B3C0B5F00001B5BF08D00001BC
:1008C000B55118E1050E0001B45DD8B01200010E5B
:1008D0000001A36FAD0E0001B425D96E000E00011A
:1008E000B521DA6EDF50300F42EC08F00001B44B56
:1008F000B52BE2D7120029C02BF02C6A2D6A2834C0
:100900002B3601E32C802B50356E3550D8A409D0FE
:10091000000E276E000E286E000E296E000E2A6E45
:100920001200170E2B6E27C02CF028C02DF029C006
:100930002EF02B282F6E04D0D8902E322D322C3250
:100940002F2EFAD72C50306E288EFF0E2716FF0E52
:100950002816000E29162750316E2850326E295065
:10096000336E346A8E0E355E35AE16D03550800A41
:100970008F0FD8B009D0000E276E000E286E000E23
:10098000296E000E2A6E1200D89034323332323281
:100990003132353EF9D715D0170E35640FD0000E21
:1009A000276E000E286E000E296E000E2A6E1200B1
:1009B000D890313632363336343635063550D8A4F1
:1009C000F7D73050D8B408D0341E331E321E316CE5
:1009D000000E32223322342231C027F032C028F0F8
:1009E00033C029F034C02AF012000EC012F0136A8E
:1009F000146A0D34123601E313801250156E15502F
:100A0000D8A407D0000E0C6E000E0D6E000E0E6EF8
:100A1000120011C012F0136A146A1034123601E386
:100A2000138012501A6E1A50D8A407D0000E0C6E04
:100A3000000E0D6E000E0E6E12001A507B0F152662
:100A40000EC01AF011501A1A800E1A160D8E108E42
:100A5000FF0E0F16FF0E1016000E1116000E166E6A
:100A6000000E176E000E186E070E196E0CA006D041
:100A70000F5016261050172211501822D8900E32FF
:100A80000D320C32D8900F3610361136192EEED7A3
:100A9000090E196E0CA006D00F5016261050172202
:100AA00011501822D8900E320D320C32D8901832D4
:100AB00017321632192EEED716C001F017C002F009
:100AC00018C003F015C004F01AC005F0CEEC05F014
:100AD00001C00CF002C00DF003C00EF01200000EB9
:100AE0000001A56F0001A3AF08D00001A26DA31FF4
:100AF000D8B0A32B010E0001A56F0001A1AF08D053
:100B00000001A06DA11FD8B0A12B010E0001A51BF3
:100B1000000E0001A76F000EA66F0001A251000198
:100B2000A311D8B42CD0010E0001A46F06D000018F
:100B3000D890A237A3370001A42B0001A3AFF7D7A9
:100B40000001D890A637A7370001A2510001A05D8F
:100B50000001A3510001A159D8A00AD00001A2515F
:100B60000001A05F0001A3510001A15B0001A6816B
:100B70000001D890A333A2330001A42FE1D70001D4
:100B8000A5510001D8B405D00001A66DA71FD8B0AB
:100B9000A72BA6C0A0F0A7C0A1F012000450D8B4A3
:100BA00005D0015002100310D8A40CD0000E016E25
:100BB000000E026E000E036E1200042AD89003325B
:100BC00002320132000E0114066E000E0214076E8E
:100BD000FE0E0314086E065007100810D8B40CD08F
:100BE000ECD7042A010E0126000E0222000E032279
:100BF000D890033202320132000E0114066E000E4C
:100C00000214076EFF0E0314086E0650071008103A
:100C1000D8B406D0E6D70406D8900136023603369B
:100C200002BE03D0020E0460F6D704A0029ED89044
:100C30000432045003120550D8A4038E01C001F001
:100C400002C002F003C003F0120046D0A8C0F6FFB5
:100C5000A9C0F7FF0800F550250AD8A42FD000013D
:100C6000A84BA92BA8C0F6FFA9C0F7FF0800F550B4
:100C7000D00F0001AA6F0001AABF0ED00001AA5137
:100C8000800A780FD8B008D0010E0001A36F0001D0
:100C9000AA5142EC08F01DD0010E0001A36F250EF1
:100CA00042EC08F0010E0001A36FA8C0F6FFA9C036
:100CB000F7FF0800F55042EC08F00BD0010E0001E0
:100CC000A36FA8C0F6FFA9C0F7FF0800F55042ECDB
:100CD00008F00001A84BA92BA8C0F6FFA9C0F7FF98
:100CE0000800F5500009D8B41200B0D7000E00017A
:100CF000A56F0001A1AF08D00001A06DA11FD8B061
:100D0000A12B010E0001A56F0001A3AF05D00001CA
:100D1000A26DA31FD8B0A32B0001A2510001A31103
:100D2000D8B426D0010E0001A46F06D00001D890DF
:100D3000A237A3370001A42B0001A3AFF7D700010E
:100D4000A2510001A05D0001A3510001A159D8A04A
:100D500008D00001A2510001A05F0001A3510001D1
:100D6000A15B0001D890A333A2330001A42FE7D7E1
:100D70000001A5510001D8B405D00001A06DA11F4C
:100D8000D8B0A12BA0C0A0F0A1C0A1F012008AECA5
:100D900009F0D9EC09F0AEEC09F0000E0001AA6FE1
:100DA000280EA96FDCEC08F0FF0E0001AA6FA10E5F
:100DB000A96FBBEC08F0000E12EC07F0000E00016A
:100DC000A36F010E42EC08F0010E0001A86F060EA1
:100DD0000001A96F25EC06F0000E0001A36F010EC3
:100DE00042EC08F0CAEC09F0A0C0A8F0A1C0A9F03C
:100DF000050E0001AA6FDEEC03F0C282000E0001B6
:100E0000B76F010EB66F0001B7BF08D0E80E000142
:100E1000B65D030E0001B759D8B0DED70001B64B5E
:100E2000B72BF1D70001A96F0A0E0001A86FBC0E05
:100E3000E82EFED7A82FFCD700F000F0F00E951694
:100E4000959C9598959AF00E8316839C839A839827
:100E5000838C8382839C6DEC08F0000E0001A36FED
:100E6000280E42EC08F0000E0001A36F0001A9510A
:100E70000C0942EC08F0000E0001A36F400E42EC9A
:100E800008F0000E0001AA6F3F0E0001AA6501D014
:100E90001200010E0001A36F0001AA51010D600EA6
:100EA000F324D96E000EF420DA6EDF5042EC08F025
:100EB0000001AA2BE9D7000E0001A56F000EA46F58
:100EC0000001A2510001A311D8B42CD0010E0001E1
:100ED000A66F06D00001D890A237A3370001A62B39
:100EE0000001A3AFF7D70001D890A437A5370001C0
:100EF000A2510001A05D0001A3510001A159D8A099
:100F00000AD00001A2510001A05F0001A35100011D
:100F1000A15B0001A4810001D890A333A23300019A
:100F2000A62FE1D7A4C0A0F0A5C0A1F01200000E2A
:100F30001E6EA00E1F6E400E206E5C0E0F6E0F0E0A
:100F4000106E3D0E116E36C038F037C039F0381EC5
:100F5000391E384A392AFF0E3824096E030E39200B
:100F60000A6E9CEC09F009C00CF00AC00DF00BC031
:100F70000EF0F5EC04F00CC01BF00DC01CF00EC020
:100F80001DF008EC03F01BC027F01CC028F01DC0AA
:100F900029F07BEC04F027C050F028C051F012007B
:100FA000000E1E6EA00E1F6E400E206E5C0E0F6EA9
:100FB0000F0E106E3D0E116E36C038F037C039F08E
:100FC000381E391E384A392AFF0E3824096E030E9E
:100FD00039200A6E9CEC09F009C00CF00AC00DF033
:100FE0000BC00EF0F5EC04F00CC01BF00DC01CF0B3
:100FF0000EC01DF008EC03F01BC027F01CC028F049
:101000001DC029F07BEC04F027C04EF028C04FF043
:101010001200000E1E6EA00E1F6E400E206E5C0EA3
:101020000F6E0F0E106E3D0E116E36C038F037C0C9
:1010300039F0381E391E384A392AFF0E3824096E15
:10104000030E39200A6E9CEC09F009C00CF00AC0AE
:101050000DF00BC00EF0F5EC04F00CC01BF00DC051
:101060001CF00EC01DF008EC03F01BC027F01CC0E4
:1010700028F01DC029F07BEC04F027C04CF028C0FC
:101080004DF012000001A66F0001A6390F0B000100
:10109000A46F0001A6510F0B0001A56F0001A35121
:1010A0000001D8A402D0839801D08388838C835018
:1010B000F00B0001A4110001A76FA7C083FF839C60
:1010C000838C8350F00B0001A5110001A76FA7C00E
:1010D00083FF839C6DEC08F01200000E0001A26FEC
:1010E0000F0E9512838A8398838C83CFA2F0000120
:1010F000A239F00B0001A26F839C838C83CFA1F0F7
:101100000F0E0001A1170001A2510001A111000161
:10111000A26F0001A251800B0001A06F839C00010F
:10112000A0510001D8A4E0D7839AF00E95161200C2
:1011300000EEB8F0070EEE6AE806FDE100EE4CF0B6
:10114000120EEE6AE806FDE13C0EF66E120EF76E28
:10115000000EF86E00EE60F010EE40F00900F5CFE2
:10116000EEFFE550E150FAE15E905E92000EF86EFF
:101170000001C7EF06F00001AABF09D00001AA5183
:1011800004E10001A905D8A002D0828407D00001A3
:10119000AAAF03D08294828602D082948296A9C09C
:1011A000A0F0AAC0A1F074EC09F0A0C0A7F0A1C003
:1011B000A8F03EEC09F012000001AABF09D000011E
:1011C000AA5104E10001A905D8A002D0828007D06D
:1011D0000001AAAF03D08290828202D082908292D4
:1011E000A9C0A0F0AAC0A1F074EC09F0A0C0A7F0BB
:1011F000A1C0A8F059EC09F01200120E0F6E630E98
:10120000106E400E116E36C009F037C00AF09CEC2B
:1012100009F009C00CF00AC00DF00BC00EF0F5EC9F
:1012200004F00CC027F00DC028F00EC029F07BECB4
:1012300004F027C0BDF028C0BEF012000C12120C42
:101240000000000000040E1F0E040000040404044B
:101250001F0E04000A15110A040000000A1F1F0EC9
:10126000040000000000000000000000000000007A
:10127000000000000000000000000000A7C0A0F077
:10128000A8C0A1F0000E0001A36F050EA26F5BECD9
:1012900007F00001A01F0001A11F0001A04BA12B1E
:1012A000140E0001A025546E000E0001A121556E00
:1012B0001200A7C0A0F0A8C0A1F0000E0001A36F0B
:1012C000050EA26F5BEC07F00001A01F0001A11F3B
:1012D0000001A04BA12B140E0001A025526E000EA0
:1012E0000001A121536E12000001A1AF0ED0A0C0D9
:1012F000A2F0A1C0A3F00001A21FA31FA24BA32B29
:10130000A2C0A0F0A3C0A1F01200A0C0A0F0A1C094
:10131000A1F0120092809282928492867E807E82D8
:101320007E847E86C280000EC16E910EC06E9E9C31
:101330009D8CF28CF28E120009C001F00AC002F0FE
:10134000036A8E0E046E000E056ECEEC05F001C031
:1013500009F002C00AF003C00BF01200F28EF28A0C
:10136000D58CD59AD586D594D592D580F294000E99
:10137000D76E9C0ED66ED58E1200C3CF05F0066ACE
:10138000C450046E036A05500324016E0650042005
:10139000026E1200BDC0A0F0BEC0A1F0120054C089
:1013A00001F055C002F0120052C001F053C002F02B
:0813B0001200C00E946E120041
:020000040020DA
:08000000FFFFFFFFFFFFFFFF00
:020000040030CA
:0E000000FF081F1EFF8B81FF0FC00FE00F4097
:00000001FF
