:04000000DFEF00F03E
:100008005C82FACF3CF0FBCF3DF0E9CF3EF0EACF7F
:100018003FF0E1CF40F0E2CF41F0D9CF42F0DACF64
:1000280043F0F3CF44F0F4CF45F0F6CF46F0F7CFE6
:1000380047F0F8CF48F0F5CF49F09EAC55D023EC07
:100048000BF001C04BF002C04CF037D0C29AC298F6
:10005800C296C2844BC036F04CC037F011EC09F0A0
:1000680015D0C29AC298C286C2944BC036F04CC012
:1000780037F04AEC09F00AD0C29AC298C286C28404
:100088004BC036F04CC037F0D8EC08F0574A582A25
:100098002AD0C29AC298C296C2944BC036F04CC0BD
:1000A80037F03EEC0AF004D0C29AC298C296C294C5
:1000B800000E586E000E576E16D057C03AF058C052
:1000C8003BF03B50000AD8A4EFD73A50000AD8B406
:1000D800BDD7010AD8B4C5D7030AD8B4CDD7010A09
:1000E800D8B4D7D7E1D79E9CF2A42CD0140E5918B7
:1000F8005A10D8A412D08298829A000E5A6E000E16
:10010800596E51EC0BF001C055F002C056F056EC98
:100118000BF001C053F002C054F05950551804E1D7
:100128005A505618D8B482885950531804E15A5076
:100138005418D8B4828A594A5A2AF294000ED76EB3
:10014800560ED66E9EAA19D014EC0BF04A6EACA2CD
:10015800FED70D0E026E060E036ECBEC0AF0ACA2B3
:10016800FED74A5039EC0BF0ACA2FED7010E026E56
:10017800060E036ECBEC0AF09E9A49C0F5FF48C004
:10018800F8FF47C0F7FF46C0F6FF45C0F4FF44C07C
:10019800F3FF43C0DAFF42C0D9FF41C0E2FF40C0CD
:1001A800E1FF3FC0EAFF3EC0E9FF3DC0FBFF3CC0A6
:0A01B800FAFF5C921100D9EF09F084
:10060000000A0D0A0D57726974653A20000A0D45FB
:1006100063686F3A20003100320033003400350047
:07062000360037003800002E
:10062800000E0001A36F010E83EC09F04CEC0BF0F7
:100638000001A15105E11F0E0001A05DD8A07AD0EC
:1006480042EC0BF00001A15105E11F0E0001A05D75
:10065800D8A038D047EC0BF00001A15105E11F0EDE
:100668000001A05DD8A017D0000E0001AA6F640E8B
:10067800A96F1DEC0AF0000E0001AA6F640EA96FA5
:10068800FCEC09F0160E0001A86F060E0001A96F18
:1006980086EC07F01200000E0001AA6F640EA96F25
:1006A8001DEC0AF0000E0001AA6F320EA96FFCECD7
:1006B80009F0180E0001A86F060E0001A96F86EC5C
:1006C80007F0120047EC0BF00001A15105E11F0EE5
:1006D8000001A05DD8A017D0000E0001AA6F320E4D
:1006E800A96F1DEC0AF0000E0001AA6F640EA96F35
:1006F800FCEC09F01A0E0001A86F060E0001A96FA4
:1007080086EC07F01200FF0E0001AA6FCE0EA96F4B
:100718001DEC0AF0000E0001AA6F320EA96FFCEC66
:1007280009F01C0E0001A86F060E0001A96F86ECE7
:1007380007F0120042EC0BF00001A15105E11F0E79
:100748000001A05DD8A038D047EC0BF00001A15102
:1007580005E11F0E0001A05DD8A017D0000E000112
:10076800AA6F320EA96F1DEC0AF0FF0E0001AA6FE6
:10077800CE0EA96FFCEC09F01E0E0001A86F060E44
:100788000001A96F86EC07F01200000E0001AA6FA5
:10079800320EA96F1DEC0AF0FF0E0001AA6FCE0EF3
:1007A800A96FFCEC09F0200E0001A86F060E0001ED
:1007B800A96F86EC07F0120047EC0BF00001A1517D
:1007C80005E11F0E0001A05DD8A017D0000E0001A2
:1007D800AA6F320EA96F1DEC0AF0000E0001AA6F75
:1007E800640EA96FFCEC09F0220E0001A86F060E3A
:1007F8000001A96F86EC07F01200FF0E0001AA6F36
:100808009C0EA96F1DEC0AF0FF0E0001AA6FB00E36
:10081800A96FFCEC09F0240E0001A86F060E000178
:10082800A96F86EC07F012001DC021F0226A236A26
:100838001C34213601E322802150266E20C021F08D
:10084800226A236A1F34213601E322802150256E53
:100858002650D8B40BD02550265CD8B00ED02650E0
:1008680000082524216E180E216407D01EC01BF035
:100878001FC01CF020C01DF012002550D8B40BD0AA
:100888002650255CD8B00ED0255000082624216EAD
:10089800180E216407D01BC01BF01CC01CF01DC023
:1008A8001DF01200060E246E1DBE248E20BE248C60
:1008B8001C8EFF0E1B16FF0E1C16000E1D161F8E1B
:1008C800FF0E1E16FF0E1F16000E20162550265C62
:1008D800D8B01BD0D8901E361F3620362506265095
:1008E8002518D8B40DD0240624C021F0070E2116EF
:1008F800D8B406D0EFD7D8901D321C321B32262A26
:1009080025502618D8B41FD0F6D72650255CD8B065
:100918001AD0D8901B361C361D36260626502518A8
:10092800D8B40DD0240624C021F0070E2116D8B45F
:1009380006D0EFD7D89020321F321E32252A2550F4
:100948002618D8A4F7D724AE0CD0FF0E1B1AFF0E1A
:100958001C1AFF0E1D1A010E1B26000E1C22000E6B
:100968001D2224AC0CD0FF0E1E1AFF0E1F1AFF0EFC
:10097800201A010E1E26000E1F22000E2022000E35
:10098800246E1B501E261C501F221D50202220AEF4
:100998000ED0FF0E1E1AFF0E1F1AFF0E201A010E90
:1009A8001E26000E1F22000E2022010E246E1EC0DD
:1009B80001F01FC002F020C003F026C004F024C0DC
:1009C80005F0DEEC06F001C01BF002C01CF003C00D
:1009D8001DF0120020EEB8F010EEADF0040EDBCFE3
:1009E800E3FFE806FCE2000E0001B56F040EB46FE9
:1009F800000E0001B36F000EB26F0001A9AF35D031
:100A0800010E0001A36F2D0E83EC09F00001A86D03
:100A1800A91FD8B0A92B29D0AD0E0001B425D96ED5
:100A2800000E0001B521DA6EA8C0A0F0A9C0A1F09F
:100A3800000E0001A36F0A0EA26F35EC07F000014B
:100A4800A051DF6EA8C0A0F0A9C0A1F0000E00015F
:100A5800A36F0A0EA26F7FEC06F0A0C0A8F0A1C099
:100A6800A9F00001B407D8A0B5070001A8510001FA
:100A7800A911D8A4D1D70001AA29D8B404D00FD07D
:100A88000001B24BB32BAD0E0001B225D96E000E9A
:100A98000001B321DA6EDF50D8A416D0F1D7AAC06E
:100AA800ABF00001AC6BABBFAC070001AB1FAC1FD8
:100AB800AB4BAC2B050E0001AB250001B26F000E4D
:100AC8000001AC210001B36FB2C0B4F0B3C0B5F0FF
:100AD8000001B5BF08D00001B55118E1050E0001AD
:100AE800B45DD8B01200010E0001A36FAD0E000175
:100AF800B425D96E000E0001B521DA6EDF50300F33
:100B080083EC09F00001B44BB52BE2D7120029C0E1
:100B18002BF02C6A2D6A28342B3601E32C802B50BD
:100B2800356E3550D8A409D0000E276E000E286EF9
:100B3800000E296E000E2A6E1200170E2B6E27C0AB
:100B48002CF028C02DF029C02EF02B282F6E04D0B1
:100B5800D8902E322D322C322F2EFAD72C50306EC0
:100B6800288EFF0E2716FF0E2816000E291627506E
:100B7800316E2850326E2950336E346A8E0E355ECF
:100B880035AE16D03550800A8F0FD8B009D0000E78
:100B9800276E000E286E000E296E000E2A6E1200B7
:100BA800D8903432333232323132353EF9D715D01B
:100BB800170E35640FD0000E276E000E286E000E3B
:100BC800296E000E2A6E1200D8903136323633362E
:100BD800343635063550D8A4F7D73050D8B408D0B5
:100BE800341E331E321E316C000E32223322342260
:100BF80031C027F032C028F033C029F034C02AF0C1
:100C080012000EC012F0136A146A0D34123601E392
:100C180013801250156E1550D8A407D0000E0C6E14
:100C2800000E0D6E000E0E6E120011C012F0136A47
:100C3800146A1034123601E3138012501A6E1A50D7
:100C4800D8A407D0000E0C6E000E0D6E000E0E6EAE
:100C580012001A507B0F15260EC01AF011501A1ADE
:100C6800800E1A160D8E108EFF0E0F16FF0E101620
:100C7800000E1116000E166E000E176E000E186E7E
:100C8800070E196E0CA006D00F501626105017220A
:100C980011501822D8900E320D320C32D8900F36DF
:100CA80010361136192EEED7090E196E0CA006D083
:100CB8000F5016261050172211501822D8900E32B5
:100CC8000D320C32D890183217321632192EEED750
:100CD80016C001F017C002F018C003F015C004F0E8
:100CE8001AC005F0DEEC06F001C00CF002C00DF0F1
:100CF80003C00EF01200000E0001A56F0001A3AFA3
:100D080008D00001A26DA31FD8B0A32B010E0001CB
:100D1800A56F0001A1AF08D00001A06DA11FD8B038
:100D2800A12B010E0001A51B000E0001A76F000EEC
:100D3800A66F0001A2510001A311D8B42CD0010E56
:100D48000001A46F06D00001D890A237A337000194
:100D5800A42B0001A3AFF7D70001D890A637A73777
:100D68000001A2510001A05D0001A3510001A15999
:100D7800D8A00AD00001A2510001A05F0001A35130
:100D88000001A15B0001A6810001D890A333A23322
:100D98000001A42FE1D70001A5510001D8B405D066
:100DA8000001A66DA71FD8B0A72BA6C0A0F0A7C0AA
:100DB800A1F012000450D8B405D00150021003105D
:100DC800D8A40CD0000E016E000E026E000E036E49
:100DD8001200042AD890033202320132000E0114A4
:100DE800066E000E0214076EFE0E0314086E0650FF
:100DF80007100810D8B40CD0ECD7042A010E01262D
:100E0800000E0222000E0322D89003320232013271
:100E1800000E0114066E000E0214076EFF0E031476
:100E2800086E065007100810D8B406D0E6D7040696
:100E3800D89001360236033602BE03D0020E046093
:100E4800F6D704A0029ED89004320450031205502D
:100E5800D8A4038E01C001F002C002F003C003F061
:100E68001200000E0001A56F0001A1AF08D000011B
:100E7800A06DA11FD8B0A12B010E0001A56F000124
:100E8800A3AF05D00001A26DA31FD8B0A32B00010A
:100E9800A2510001A311D8B426D0010E0001A46FFD
:100EA80006D00001D890A237A3370001A42B000177
:100EB800A3AFF7D70001A2510001A05D0001A35123
:100EC8000001A159D8A008D00001A2510001A05FDB
:100ED8000001A3510001A15B0001D890A333A23304
:100EE8000001A42FE7D70001A5510001D8B405D00F
:100EF8000001A06DA11FD8B0A12BA0C0A0F0A1C077
:100F0800A1F0120046D0A8C0F6FFA9C0F7FF08005C
:100F1800F550250AD8A42FD00001A84BA92BA8C0AA
:100F2800F6FFA9C0F7FF0800F550D00F0001AA6F1F
:100F38000001AABF0ED00001AA51800A780FD8B0CC
:100F480008D0010E0001A36F0001AA5183EC09F03B
:100F58001DD0010E0001A36F250E83EC09F0010ED0
:100F68000001A36FA8C0F6FFA9C0F7FF0800F5505D
:100F780083EC09F00BD0010E0001A36FA8C0F6FFA7
:100F8800A9C0F7FF0800F55083EC09F00001A84B51
:100F9800A92BA8C0F6FFA9C0F7FF0800F550000963
:100FA800D8B41200B0D70001A96F0A0E0001A86FCB
:100FB800BC0EE82EFED7A82FFCD700F000F0F00EEC
:100FC8009516959C9598959AF00E8316839C839A0E
:100FD8008398838C8382839CAEEC09F0000E000119
:100FE800A36F280E83EC09F0000E0001A36F000127
:100FF800A9510C0983EC09F0000E0001A36F400E03
:1010080083EC09F0000E0001AA6F3F0E0001AA65EB
:1010180001D01200010E0001A36F0001AA51010DB9
:10102800600EF324D96E000EF420DA6EDF5083ECE4
:1010380009F00001AA2BE9D7E1EC0AF05BEC0BF010
:1010480030EC0BF005EC0BF0000E0001AA6F280E37
:10105800A96F1DEC0AF0FF0E0001AA6FA10EA96F7F
:10106800FCEC09F0000ED7EC07F05EEC0BF014EC8A
:1010780003F0000E0001A36F010E83EC09F04CECA5
:101088000BF0A0C0A8F0A1C0A9F0020E0001AA6F41
:10109800EEEC04F0000E0001B76F010EB66F000110
:1010A800B7BF08D0E80E0001B65D030E0001B759BE
:1010B800D8B0DBD70001B64BB72BF1D7000E000133
:1010C800A56F000EA46F0001A2510001A311D8B4AE
:1010D8002CD0010E0001A66F06D00001D890A237CF
:1010E800A3370001A62B0001A3AFF7D70001D890C2
:1010F800A437A5370001A2510001A05D0001A3514A
:101108000001A159D8A00AD00001A2510001A05F96
:101118000001A3510001A15B0001A4810001D89046
:10112800A333A2330001A62FE1D7A4C0A0F0A5C025
:10113800A1F012000001A26F000EAC6E000EAB6EA3
:101148000001A2B1AC880001A2A302D0AC8CAB8C88
:101158000001A2B5AC8E0001A2A702D0AB8801D0D5
:10116800AB8A0001A2B9AC849E980001A2BBAB86F1
:101178000001A2AD02D09D8A01D09D9A9E9A0001DD
:10118800A2AF02D09D8801D09D98A0C0AFFF0001FA
:10119800A151B06EAC8AAB8E949C948EACA8120010
:1011A800ACBE1200948C1200000E1E6EA00E1F6EB4
:1011B800400E206E5C0E0F6E0F0E106E3D0E116EFF
:1011C80036C038F037C039F0381E391E384A392A47
:1011D800FF0E3824096E030E39200A6EF3EC0AF06C
:1011E80009C00CF00AC00DF00BC00EF005EC06F0BB
:1011F8000CC01BF00DC01CF00EC01DF018EC04F064
:101208001BC027F01CC028F01DC029F08BEC05F08E
:1012180027C0C1F028C0C2F01200000E1E6EA00E3A
:101228001F6E400E206E5C0E0F6E0F0E106E3D0E80
:10123800116E36C038F037C039F0381E391E384ABA
:10124800392AFF0E3824096E030E39200A6EF3EC92
:101258000AF009C00CF00AC00DF00BC00EF005EC46
:1012680006F00CC01BF00DC01CF00EC01DF018ECF1
:1012780004F01BC027F01CC028F01DC029F08BEC1F
:1012880005F027C0BFF028C0C0F01200000E1E6E87
:10129800A00E1F6E400E206E5C0E0F6E0F0E106EAD
:1012A8003D0E116E36C038F037C039F0381E391E81
:1012B800384A392AFF0E3824096E030E39200A6E7F
:1012C800F3EC0AF009C00CF00AC00DF00BC00EF0E8
:1012D80005EC06F00CC01BF00DC01CF00EC01DF094
:1012E80018EC04F01BC027F01CC028F01DC029F022
:1012F8008BEC05F027C0BDF028C0BEF0120000013D
:10130800A66F0001A6390F0B0001A46F0001A651BA
:101318000F0B0001A56F0001A3510001D8A402D052
:10132800839801D08388838C8350F00B0001A4112B
:101338000001A76FA7C083FF839C838C8350F00BA9
:101348000001A5110001A76FA7C083FF839CAEEC25
:1013580009F01200000E0001A26F0F0E9512838A89
:101368008398838C83CFA2F00001A239F00B00018F
:10137800A26F839C838C83CFA1F00F0E0001A1176D
:101388000001A2510001A1110001A26F0001A251A8
:10139800800B0001A06F839C0001A0510001D8A41C
:1013A800E0D7839AF00E9516120000EEB8F00B0EF7
:1013B800EE6AE806FDE100EE4DF00F0EEE6AE80673
:1013C800FDE1BE0EF66E140EF76E000EF86E00EE1E
:1013D80060F010EE40F00900F5CFEEFFE550E15067
:1013E800FAE15C905C92000EF86E000120EF08F0C4
:1013F8000001AABF09D00001AA5104E10001A90512
:10140800D8A002D0828407D00001AAAF03D082946A
:10141800828602D082948296A9C0A0F0AAC0A1F0C8
:10142800B5EC0AF0A0C0A7F0A1C0A8F07FEC0AF0C4
:1014380012000001AABF09D00001AA5104E100016D
:10144800A905D8A002D0828007D00001AAAF03D096
:101458008290828202D082908292A9C0A0F0AAC013
:10146800A1F0B5EC0AF0A0C0A7F0A1C0A8F09AECD2
:101478000AF01200120E0F6E630E106E400E116EFF
:1014880036C009F037C00AF0F3EC0AF009C00CF0D6
:101498000AC00DF00BC00EF005EC06F00CC027F0EA
:1014A8000DC028F00EC029F08BEC05F027C04DF0D8
:1014B80028C04EF012000C12120C000000000004AC
:1014C8000E1F0E040000040404041F0E04000A1575
:1014D800110A040000000A1F1F0E0400000000008B
:1014E80000000000000000000000000000000000F4
:1014F800000000000000A7C0A0F0A8C0A1F0000EE6
:101508000001A36F050EA26F62EC08F00001A01F96
:101518000001A11F0001A04BA12B140E0001A02562
:10152800516E000E0001A121526E1200A7C0A0F05A
:10153800A8C0A1F0000E0001A36F050EA26F62EC17
:1015480008F00001A01F0001A11F0001A04BA12B62
:10155800140E0001A0254F6E000E0001A121506E4F
:1015680012000001A1AF0ED0A0C0A2F0A1C0A3F04C
:101578000001A21FA31FA24BA32BA2C0A0F0A3C0CF
:10158800A1F01200A0C0A0F0A1C0A1F01200ACA26E
:10159800FED702C0F6FF03C0F7FF0800F55039EC8C
:1015A8000BF002C0F6FF03C0F7FF024A032A080047
:1015B800F5500009D8B41200EAD79280928292843A
:1015C80092867E807E827E847E86C280000EC16E78
:1015D800910EC06E9E9C9D8CF28CF28E120009C0FA
:1015E80001F00AC002F0036A8E0E046E000E056E4A
:1015F800DEEC06F001C009F002C00AF003C00BF0EF
:101608001200F28EF28AD58CD59AD586D594D592C9
:10161800D580F294000ED76E9C0ED66ED58E120031
:10162800F20E5B16ABAC03D05B90ABB05B80ABB497
:101638005B84ABB25B86AECF01F001501200C3CF22
:1016480005F0066AC450046E036A05500324016E4F
:1016580006500420026E1200000E0001A16F060E53
:10166800A06F7C0E9EEC08F01200016EACAC03D0AB
:10167800AC905BB2AC8001C0ADFF1200C1C0A0F05D
:10168800C2C0A1F01200BFC0A0F0C0C0A1F01200FB
:10169800BDC0A0F0BEC0A1F0120051C001F052C000
:1016A80002F012004FC001F050C002F01200C00E4C
:0816B800946E1200C2821200C0
:020000040020DA
:08000000FFFFFFFFFFFFFFFF00
:020000040030CA
:0E000000FF081F1EFF8B81FF0FC00FE00F4097
:00000001FF
