:0400000071EF00F0AC
:100008002B82FACF03F0FBCF04F0E9CF05F0EACF5B
:1000180006F0E1CF07F0E2CF08F0D9CF09F0DACF48
:100028000AF0F3CF0BF0F4CF0CF0F6CF0DF0F7CFCA
:100038000EF0F8CF0FF0F5CF10F09EAC02D0C282D0
:100048009E9CF2A42CD0140E29182A10D8A412D0E1
:100058008298829A000E2A6E000E296ED9EC04F05E
:1000680001C027F002C028F0DEEC04F001C025F042
:1000780002C026F02950271804E12A502818D8B4BD
:1000880082882950251804E12A502618D8B4828A73
:10009800294A2A2AF294000ED76E560ED66E10C040
:1000A800F5FF0FC0F8FF0EC0F7FF0DC0F6FF0CC03C
:1000B800F4FF0BC0F3FF0AC0DAFF09C0D9FF08C07C
:1000C800E2FF07C0E1FF06C0EAFF05C0E9FF04C080
:0E00D800FBFF03C0FAFF2B92110035EF04F07E
:100600000048656C6C6F20576F726C64202100008D
:100610003CD019C0F6FF1AC0F7FF0800F550250AB4
:10062000D8A427D0194A1A2A19C0F6FF1AC0F7FF12
:100630000800F550D00F1B6E1BBE0BD01B50800A5C
:10064000780FD8B006D0010E146E1B50D6EC03F014
:100650001AD0010E146E250ED6EC03F0010E146EA6
:1006600019C0F6FF1AC0F7FF0800F550D6EC03F0EA
:100670000AD0010E146E19C0F6FF1AC0F7FF080069
:10068000F550D6EC03F0194A1A2A19C0F6FF1AC021
:10069000F7FF0800F5500009D8B41200BAD71A6E57
:1006A0000A0E196EBC0EE82EFED7192EFCD700F0EC
:1006B00000F0F00E9516959C9598959AF00E83167D
:1006C000839C839A8398838C8382839CF6EC03F0CB
:1006D000000E146E280ED6EC03F0000E146E1A50A5
:1006E0000C09D6EC03F0000E146E400ED6EC03F0AD
:1006F000000E1B6E3F0E1B6401D01200010E146E23
:100700001B50010D600EF324D96E000EF420DA6E3A
:10071000DF50D6EC03F01B2AEDD7000E166E000E4C
:10072000156E13501410D8B41CD0010E176E04D0DF
:10073000D89013361436172A14AEFAD7D890153637
:1007400016361350115C14501258D8A005D013500F
:10075000115E1450125A1580D89014321332172E8D
:10076000EDD715C011F016C012F012000C12120CC9
:100770000000000000040E1F0E0400000404040426
:100780001F0E04000A15110A040000000A1F1F0EA4
:100790000400000000000000000000000000000055
:1007A000000000000000000000000000176E173875
:1007B0000F0B156E17500F0B166E1450D8A402D0E5
:1007C000839801D08388838C8350F00B1510186EAA
:1007D00018C083FF839C838C8350F00B1610186E17
:1007E00018C083FF839CF6EC03F01200000E136E1A
:1007F0000F0E9512838A8398838C83CF13F013385E
:10080000F00B136E839C838C83CF12F00F0E1216A5
:1008100013501210136E1350800B116E839C1150E5
:10082000D8A4EAD7839AF00E95161200E3EC04F0F0
:10083000CAEC04F0000E1B6E280E1A6E6FEC04F06A
:10084000FF0E1B6EA10E1A6E52EC04F0000E4FEC60
:1008500003F0000E146E010ED6EC03F0010E196EBB
:10086000060E1A6E08EC03F0FFD700EE1CF00F0E18
:10087000EE6AE806FDE16C0EF66E070EF76E000EEE
:10088000F86E00EE60F010EE40F00900F5CFEEFFDC
:10089000E550E150FAE12B902B92000EF86E00012A
:1008A00016EF04F01BBE07D01B5003E11A04D8A0BA
:1008B00002D0828406D01BAE03D08294828602D0FE
:1008C000829482961AC011F01BC012F0B6EC04F0AC
:1008D00011C018F012C019F08CEC04F012001BBE0D
:1008E00007D01B5003E11A04D8A002D0828006D0A2
:1008F0001BAE03D08290828202D0829082921AC074
:1009000011F01BC012F0B6EC04F011C018F012C0C8
:1009100019F0A1EC04F0120018C011F019C012F087
:10092000000E146E050E136E8DEC03F0111E121ED8
:10093000114A122A140E1124236E000E1220246E66
:10094000120018C011F019C012F0000E146E050E3E
:10095000136E8DEC03F0111E121E114A122A140E92
:100960001124216E000E1220226E120012AE0DD044
:1009700011C013F012C014F0131E141E134A142ACF
:1009800013C011F014C012F0120011C011F012C007
:1009900012F01200F28EF28AD58CD59AD586D594B3
:1009A000D592D580F294000ED76E9C0ED66ED58E61
:1009B000120023C001F024C002F0120021C001F097
:0C09C00022C002F01200C00E946E120063
:020000040020DA
:08000000FFFFFFFFFFFFFFFF00
:020000040030CA
:0E000000FF081F1EFF8B81FF0FC00FE00F4097
:00000001FF
