:04000000C4EF00F059
:100008005F82FACF3DF0FBCF3EF0E9CF3FF0EACF79
:1000180040F0E1CF41F0E2CF42F0D9CF43F0DACF60
:1000280044F0F3CF45F0F4CF46F0F6CF47F0F7CFE2
:1000380048F0F8CF49F0F5CF4AF09EAC55D0CBEC5C
:100048000BF001C04BF002C04CF037D0C29AC298F6
:10005800C296C2844BC036F04CC037F069EC08F049
:1000680015D0C29AC298C286C2944BC036F04CC012
:1000780037F0A2EC08F00AD0C29AC298C286C284AD
:100088004BC036F04CC037F02EEC08F0574A582ACF
:100098002AD0C29AC298C296C2944BC036F04CC0BD
:1000A80037F06DEC07F004D0C29AC298C296C29499
:1000B800000E586E000E576E16D057C03BF058C051
:1000C8003CF03C50000AD8A4EFD73B50000AD8B403
:1000D800BDD7010AD8B4C5D7030AD8B4CDD7010A09
:1000E800D8B4D7D7E1D79E9CF2A42CD0140E5918B7
:1000F8005A10D8A412D0829A8298000E5A6E000E16
:10010800596EF6EC0BF001C055F002C056F0FBEC4E
:100118000BF001C053F002C054F05950551804E1D7
:100128005A505618D8B4828A5950531804E15A5074
:100138005418D8B48288594A5A2AF294000ED76EB5
:10014800560ED66E4AC0F5FF49C0F8FF48C0F7FF03
:1001580047C0F6FF46C0F4FF45C0F3FF44C0DAFFCE
:1001680043C0D9FF42C0E2FF41C0E1FF40C0EAFFFF
:100178003FC0E9FF3EC0FBFF3DC0FAFF5F921100A0
:04018800ECEF09F09F
:100600000052696768742D46726F6E742D4C656672
:0306100074000073
:100614001DC021F0226A236A1C34213601E32280A2
:100624002150266E20C021F0226A236A1F3421360D
:1006340001E322802150256E2650D8B40BD02550DA
:10064400265CD8B00ED0265000082524216E180E42
:10065400216407D01EC01BF01FC01CF020C01DF079
:1006640012002550D8B40BD02650255CD8B00ED03B
:10067400255000082624216E180E216407D01BC0C3
:100684001BF01CC01CF01DC01DF01200060E246ED1
:100694001DBE248E20BE248C1C8EFF0E1B16FF0E46
:1006A4001C16000E1D161F8EFF0E1E16FF0E1F16A3
:1006B400000E20162550265CD8B01BD0D8901E36CC
:1006C4001F362036250626502518D8B40DD024060A
:1006D40024C021F0070E2116D8B406D0EFD7D89045
:1006E4001D321C321B32262A25502618D8B41FD09E
:1006F400F6D72650255CD8B01AD0D8901B361C36B5
:100704001D36260626502518D8B40DD0240624C03C
:1007140021F0070E2116D8B406D0EFD7D890203296
:100724001F321E32252A25502618D8A4F7D724AE06
:100734000CD0FF0E1B1AFF0E1C1AFF0E1D1A010E01
:100744001B26000E1C22000E1D2224AC0CD0FF0E12
:100754001E1AFF0E1F1AFF0E201A010E1E26000E6F
:100764001F22000E2022000E246E1B501E261C5039
:100774001F221D50202220AE0ED0FF0E1E1AFF0E87
:100784001F1AFF0E201A010E1E26000E1F22000E35
:100794002022010E246E1EC001F01FC002F020C0F2
:1007A40003F026C004F024C005F086EC06F001C076
:1007B4001BF002C01CF003C01DF0120046EC09F04F
:1007C400E2EC0BF00001A6510001A711D8A467D0F8
:1007D400DDEC0BF0A6C0B4F0A7C0B5F0D8EC0BF07C
:1007E400A6C0B6F0A7C0B7F00001B7BF4BD0000158
:1007F400B75104E10001B605D8A044D00001B5BF4B
:1008040041D00001B55104E10001B405D8A03AD0AB
:10081400F1EC0BF00001A75105E1250E0001A65DE6
:10082400D8A014D0E7EC0BF00001A75105E11E0E8F
:100834000001A65DD8A00AD0ECEC0BF00001A75192
:1008440014E11E0E0001A65DD8B00FD0000E000109
:10085400B06F000EAF6F32EC0AF0000E0001B06F03
:10086400000EAF6F0FEC0AF01200B4C0AFF0B5C0C9
:10087400B0F032EC0AF0B6C0AFF0B7C0B0F00FEC95
:100884000AF01200B4C0AFF0B5C0B0F032EC0AF018
:10089400B6C0AFF0B7C0B0F00FEC0AF01200E2EC53
:1008A4000BF00001A6050001A711D8A41200F1EC79
:1008B4000BF00001A7511DE1250E0001A65DD8B083
:1008C40018D0ECEC0BF0A6C0B2F0A7C0B3F0E7EC84
:1008D4000BF00001A6510001B25D0001A751000117
:1008E400B359D8B003D022EC0BF0120054EC0BF047
:1008F4001200E7EC0BF00001A75108E11E0E000105
:10090400A65DD8B003D03BEC0BF01200ECEC0BF07E
:100914000001A75108E11E0E0001A65DD8B003D066
:1009240009EC0BF01200000E0001B06F280EAF6F3F
:100934000FEC0AF0000E0001B06F280EAF6F32EC1E
:100944000AF0120020EEB8F010EE0EF0040EDBCF29
:10095400E3FFE806FCE2000E166E040E156E000EB0
:10096400146E000E136E0AAE2DD0010E046E2D0E01
:1009740075EC0AF0096C0A1ED8B00A2A23D00E0EB0
:100984001524D96E000E1620DA6E09C001F00AC0D3
:1009940002F0000E046E0A0E036EDBEC08F0015048
:1009A400DF6E09C001F00AC002F0000E046E0A0EE8
:1009B400036EB0EC07F001C009F002C00AF015069E
:1009C400D8A0160609500A10D8A4D9D70B28D8B431
:1009D40003D00CD0134A142A0E0E1324D96E000E21
:1009E4001420DA6EDF50D8A410D0F4D70BC00CF06A
:1009F4000D6A0CBE0D060C1E0D1E0C4A0D2A050EAA
:100A04000C24136E000E0D20146E13C015F014C0C8
:100A140016F016BE06D0165013E1050E155CD8B0BC
:100A24001200010E046E0E0E1524D96E000E16204F
:100A3400DA6EDF50300F75EC0AF0154A162AE9D742
:100A4400120029C02BF02C6A2D6A28342B3601E3BE
:100A54002C802B50356E3550D8A409D0000E276E4B
:100A6400000E286E000E296E000E2A6E1200170E5C
:100A74002B6E27C02CF028C02DF029C02EF02B2877
:100A84002F6E04D0D8902E322D322C322F2EFAD73E
:100A94002C50306E288EFF0E2716FF0E2816000EDF
:100AA40029162750316E2850326E2950336E346A1D
:100AB4008E0E355E35AE16D03550800A8F0FD8B005
:100AC40009D0000E276E000E286E000E296E000E4F
:100AD4002A6E1200D8903432333232323132353EFB
:100AE400F9D715D0170E35640FD0000E276E000EFF
:100AF400286E000E296E000E2A6E1200D890313630
:100B040032363336343635063550D8A4F7D730501C
:100B1400D8B408D0341E331E321E316C000E32227B
:100B24003322342231C027F032C028F033C029F0F8
:100B340034C02AF012000EC012F0136A146A0D3485
:100B4400123601E313801250156E1550D8A407D045
:100B5400000E0C6E000E0D6E000E0E6E120011C013
:100B640012F0136A146A1034123601E3138012501F
:100B74001A6E1A50D8A407D0000E0C6E000E0D6E1B
:100B8400000E0E6E12001A507B0F15260EC01AF0BE
:100B940011501A1A800E1A160D8E108EFF0E0F1693
:100BA400FF0E1016000E1116000E166E000E176EB4
:100BB400000E186E070E196E0CA006D00F501626E4
:100BC4001050172211501822D8900E320D320C32C8
:100BD400D8900F3610361136192EEED7090E196E2D
:100BE4000CA006D00F5016261050172211501822B0
:100BF400D8900E320D320C32D89018321732163289
:100C0400192EEED716C001F017C002F018C003F079
:100C140015C004F01AC005F086EC06F001C00CF013
:100C240002C00DF003C00EF012000001A86F48D0FE
:100C3400FF0E0001A76F9C0EA66F1200FF0E0001AD
:100C4400A76FB00EA66F1200FF0E0001A76FC40EAF
:100C5400A66F1200FF0E0001A76FD80EA66F120038
:100C6400FF0E0001A76FEC0EA66F1200000E00012C
:100C7400A76F000EA66F1200000E0001A76F140EDE
:100C8400A66F1200000E0001A76F280EA66F1200B7
:100C9400000E0001A76F3C0EA66F1200000E0001AB
:100CA400A76F500EA66F1200000E0001A76F640E0E
:100CB400A66F1200000E0001A76F000EA66F1200AF
:100CC4000001A851010AD8B4B3D7030AD8B4B6D7DF
:100CD400010AD8B4B9D7070AD8B4BCD7010AD8B422
:100CE400BFD7030AD8B4C2D7010AD8B4C5D70F0AEC
:100CF400D8B4C8D7010AD8B4CBD7030AD8B4CED74E
:100D0400010AD8B4D1D7D6D70450D8B405D00150ED
:100D140002100310D8A40CD0000E016E000E026E57
:100D2400000E036E1200042AD890033202320132FC
:100D3400000E0114066E000E0214076EFE0E03145C
:100D4400086E065007100810D8B40CD0ECD7042A4B
:100D5400010E0126000E0222000E0322D890033257
:100D640002320132000E0114066E000E0214076EE8
:100D7400FF0E0314086E065007100810D8B406D0EE
:100D8400E6D70406D89001360236033602BE03D0F5
:100D9400020E0460F6D704A0029ED89004320450D8
:100DA40003120550D8A4038E01C001F002C002F062
:100DB40003C003F012000001AF6F0A0E0001AE6F12
:100DC400BC0EE82EFED7AE2FFCD700F000F0F00EDC
:100DD4009516959C9598959AF00E8316839C839A04
:100DE4008398838C8382839C9EEC09F0000E00011F
:100DF400A96F280E73EC09F0000E0001A96F000121
:100E0400AF510C0973EC09F0000E0001A96F400EFC
:100E140073EC09F0000E0001B06F3F0E0001B065E5
:100E240001D01200010E0001A96F0001B051010DA3
:100E3400600EF324D96E000EF420DA6EDF5073ECEA
:100E440009F00001B02BE9D73CD009C0F6FF0AC075
:100E5400F7FF0800F550250AD8A427D0094A0A2A22
:100E640009C0F6FF0AC0F7FF0800F550D00F0B6E5B
:100E74000BBE0BD00B50800A780FD8B006D0010EF1
:100E8400046E0B5075EC0AF01AD0010E046E250E98
:100E940075EC0AF0010E046E09C0F6FF0AC0F7FFF4
:100EA4000800F55075EC0AF00AD0010E046E09C072
:100EB400F6FF0AC0F7FF0800F55075EC0AF0094A7E
:100EC4000A2A09C0F6FF0AC0F7FF0800F550000916
:100ED400D8B41200BAD7000E1E6E300E1F6EC10EAB
:100EE400206E120E0F6E630E106E400E116E36C021
:100EF40009F037C00AF0AAEC0BF009C00CF00AC0E4
:100F04000DF00BC00EF09DEC05F00CC01BF00DC0F5
:100F14001CF00EC01DF00AEC03F01BC038F01CC01E
:100F240039F01DC03AF0000E0F6EC80E106E420E5E
:100F3400116E38C00CF039C00DF03AC00EF09DECC3
:100F440005F00CC027F00DC028F00EC029F023ECEA
:100F540005F027C04DF028C04EF01200000E066EBA
:100F640004AE06D0036C041ED8B0042A010E066E2B
:100F740002AE06D0016C021ED8B0022A010E061A77
:100F8400000E086E000E076E03500410D8B41CD077
:100F9400010E056E04D0D89003360436052A04AE3B
:100FA400FAD7D890073608360350015C045002582B
:100FB400D8A005D00350015E0450025A0780D8908F
:100FC40004320332052EEDD70650D8B404D0076C92
:100FD400081ED8B0082A07C001F008C002F01200A9
:100FE400000E0001AB6F000EAA6F0001A8510001B2
:100FF400A911D8B42CD0010E0001AC6F06D00001A9
:10100400D890A837A9370001AC2B0001A9AFF7D7B6
:101014000001D890AA37AB370001A8510001A65DA2
:101024000001A9510001A759D8A00AD00001A85174
:101034000001A65F0001A9510001A75B0001AA817C
:101044000001D890A933A8330001AC2FE1D7AAC07E
:10105400A6F0ABC0A7F0120013EC09F0000E1E6E50
:10106400A00E1F6E400E206E080E0F6E2C0E106E1A
:101074003D0E116E36C038F037C039F0381E391EB7
:10108400384A392AFF0E3824096E030E39200A6EB5
:10109400AAEC0BF009C00CF00AC00DF00BC00EF066
:1010A4009DEC05F00CC01BF00DC01CF00EC01DF033
:1010B4000AEC03F01BC027F01CC028F01DC029F067
:1010C40023EC05F027C0A4F028C0A5F01200000E00
:1010D4001E6EA00E1F6E400E206E080E0F6E2C0E9C
:1010E400106E3D0E116E36C038F037C039F0381E20
:1010F400391E384A392AFF0E3824096E030E392066
:101104000A6EAAEC0BF009C00CF00AC00DF00BC07B
:101114000EF09DEC05F00CC01BF00DC01CF00EC0D1
:101124001DF00AEC03F01BC027F01CC028F01DC002
:1011340029F023EC05F027C0A2F028C0A3F0120088
:10114400000E1E6EA00E1F6E400E206E080E0F6E57
:101154002C0E106E3D0E116E36C038F037C039F0CB
:10116400381E391E384A392AFF0E3824096E030EF8
:1011740039200A6EAAEC0BF009C00CF00AC00DF07D
:101184000BC00EF09DEC05F00CC01BF00DC01CF064
:101194000EC01DF00AEC03F01BC027F01CC028F0A1
:1011A4001DC029F023EC05F027C0A0F028C0A1F051
:1011B4001200000E066E02AE06D0016C021ED8B0FC
:1011C400022A010E066E04AE04D0036C041ED8B0CD
:1011D400042A03500410D8B418D0010E056E04D0AC
:1011E400D89003360436052A04AEFAD70350015CBE
:1011F40004500258D8A004D00350015E0450025A8F
:10120400D89004320332052EF1D70650D8B404D056
:10121400016C021ED8B0022A01C001F002C002F023
:101224001200000E096E000E55EC0AF0010E096E54
:10123400060E0A6E26EC07F0010E096E000E55EC40
:101244000AF0A4C009F0A5C00AF0030E0B6EA4ECCA
:1012540004F0010E096E060E55EC0AF0A0C009F068
:10126400A1C00AF0030E0B6EA4EC04F0010E096E8B
:101274000C0E55EC0AF0A2C009F0A3C00AF0030E4C
:101284000B6EA4EC04F0120081CFAAF00001AA397D
:101294000F0B0001AB6F0001AA510F0B0001A96FE6
:1012A4000001A95117EC06F0A6C0C5F0A7C0C6F00E
:1012B4000001AB5117EC06F0A6C0C3F0A7C0C4F000
:1012C4000C0E0001AB19D8A406D0000E0001BE6FAD
:1012D400010EBD6F1200000E0001BE6F000EBD6F47
:1012E40012000001AC6F0001AC390F0B0001AA6FB2
:1012F4000001AC510F0B0001AB6F0001A9510001BB
:10130400D8A402D0839801D08388838C8350F00BB7
:101314000001AA110001AD6FADC083FF839C838CD3
:101324008350F00B0001AB110001AD6FADC083FF22
:10133400839C9EEC09F01200000E0001A86F0F0EB2
:101344009512838A8398838C83CFA8F00001A839EF
:10135400F00B0001A86F839C838C83CFA7F00F0E42
:101364000001A7170001A8510001A7110001A86FEF
:101374000001A851800B0001A66F839C0001A651B7
:101384000001D8A4E0D7839AF00E951612000C122F
:10139400120C0000000000040E1F0E0400000404E0
:1013A40004041F0E04000A15110A040000000A1F99
:1013B4001F0E0400000000000000000000000000F8
:1013C40000000000000000000000000000003200E7
:1013D4003200320000EEB8F00F0EEE6AE806FDE1CE
:1013E40000EE4DF00E0EEE6AE806FDE1920EF66E8A
:1013F400130EF76E000EF86E00EE60F010EE46F07D
:101404000900F5CFEEFFE550E150FAE15F905F92FD
:10141400000EF86E0001B5EF0AF0AFC0C1F0B0C025
:10142400C2F00001B0BF0AD00001B05104E10001D4
:10143400AF05D8A003D08284829605D00001B0AF56
:1014440002D082948286AFC0A6F0B0C0A7F06DEC43
:101454000BF0A6C0ADF0A7C0AEF0D3EC0AF01200BA
:10146400AFC0BFF0B0C0C0F00001B0BF0AD00001EF
:10147400B05104E10001AF05D8A003D0828082926C
:1014840005D00001B0AF02D082908282AFC0A6F036
:10149400B0C0A7F06DEC0BF0A6C0ADF0A7C0AEF0E5
:1014A400EEEC0AF012000A6E130E0A6408D0120061
:1014B4000A8C12D0140E01D0540E0A260DD00950F5
:1014C400000AD8B409D0010AD8B4F2D7030AD8B4B0
:1014D400F1D7010AD8B4F0D70A8E000E046E0A5070
:1014E40075EC0AF01200076E07380F0B056E0750F3
:1014F4000F0B066E0450D8A402D0839801D08388C1
:10150400838C8350F00B0510086E08C083FF839C06
:10151400838C8350F00B0610086E08C083FF839CF5
:1015240095EC0AF01200000E036E0F0E9512838ADA
:101534008398838C83CF03F00338F00B036E839C72
:10154400838C83CF02F00F0E021603500210036E39
:101554000350800B016E839C0150D8A4EAD7839A70
:10156400F00E9516120098EC0BF083EC0BF0BCEC2B
:101574000BF0000EDDEC06F000EC0CF0000E0001A8
:10158400B06F000EAF6F32EC0AF0000E0001B06FC6
:10159400000EAF6F0FEC0AF004EC0CF0E0EC03F07B
:1015A400FBD7ADC0A6F0AEC0A7F0000E0001A96F36
:1015B400050EA86FF2EC07F00001A61F0001A71F9B
:1015C4000001A64BA72B140E0001A6255D6E000E8C
:1015D4000001A7215E6E1200ADC0A6F0AEC0A7F058
:1015E400000E0001A96F050EA86FF2EC07F00001D0
:1015F400A61F0001A71F0001A64BA72B140E000174
:10160400A6255B6E000E0001A7215C6E1200FF0E82
:101614000001B06F9C0EAF6F0FEC0AF0000E0001DA
:10162400B06F640EAF6F32EC0AF0210E0001B16F9F
:10163400760EE82EFED7B12FFCD700F000F0120092
:10164400FF0E0001B06F9C0EAF6F0FEC0AF0000E9E
:101654000001B06F640EAF6F32EC0AF0310E00017E
:10166400B16FB20EE82EFED7B12FFCD700F000F018
:101674001200000E0001B06F640EAF6F0FEC0AF0A1
:10168400FF0E0001B06F9C0EAF6F32EC0AF0210E1A
:101694000001B16F760EE82EFED7B12FFCD700F013
:1016A40000F01200000E0001B06F640EAF6F0FEC7B
:1016B4000AF0FF0E0001B06F9C0EAF6F32EC0AF01F
:1016C400310E0001B16FB20EE82EFED7B12FFCD758
:1016D40000F000F012000001A7AF0ED0A6C0A8F0E1
:1016E400A7C0A9F00001A81FA91FA84BA92BA8C037
:1016F400A6F0A9C0A7F01200A6C0A6F0A7C0A7F044
:101704001200C00E946E8280829282848296000EB1
:101714000001AE6F000EAD6FEEEC0AF0000E00019A
:10172400AE6F000EAD6FD3EC0AF01200928092827D
:10173400928492867E807E827E847E86C280000E23
:10174400C16E910EC06E9E9C9D8CF28CF28E120026
:1017540009C001F00AC002F0036A8E0E046E000E86
:10176400056E86EC06F001C009F002C00AF003C061
:101774000BF01200F28EF28AD58CD59AD586D594C8
:10178400D592D580F294000ED76E9C0ED66ED58E6F
:101794001200C3CF05F0066AC450046E036A0550F4
:1017A4000324016E06500420026E1200C5C0A6F088
:1017B400C6C0A7F01200C3C0A6F0C4C0A7F01200B0
:1017C400BDC0A6F0BEC0A7F01200A4C0A6F0A5C07C
:1017D400A7F01200A2C0A6F0A3C0A7F01200A0C0F8
:1017E400A6F0A1C0A7F012005DC001F05EC002F037
:1017F40012005BC001F05CC002F012009368000E9E
:081804007F6E1200C282120087
:020000040020DA
:08000000FFFFFFFFFFFFFFFF00
:020000040030CA
:0E000000FF081F1EFF8B81FF0FC00FE00F4097
:00000001FF
